:020000040800F2
:10000000C8700020D50300089D610008B15B00089E
:10001000996100080D200008759500080000000097
:1000200000000000000000000000000015030008B0
:100030006322000800000000710300082F6400081C
:10004000EF030008EF030008EF030008EF030008C8
:10005000EF030008EF030008EF030008EF030008B8
:10006000EF030008EF030008EF0300081521000864
:1000700025210008EF030008EF030008EF03000844
:10008000EF030008EF030008EF030008EF03000888
:1000900011200008EF030008EF030008EF03000839
:1000A000EF030008EF030008EF030008EF03000868
:1000B000EF030008EF030008EF030008EF03000858
:1000C000EF030008EF030008EF030008EF03000848
:1000D000EF0300080D6D0008EF0300081D6D000818
:1000E000EF030008EF030008EF030008EF03000828
:1000F000EF030008EF030008EF03000835210008B4
:10010000EF030008EF030008EF030008EF03000807
:10011000EF03000849680008EF030008EF03000838
:10012000EF0300084521000855210008EF030008EF
:10013000EF030008EF030008EF030008EF030008D7
:10014000EF030008EF030008EF030008A1610008B7
:10015000EF03000865210008752100082D6D0008D7
:10016000EF030008EF030008EF030008EF030008A7
:10017000EF030008EF030008EF0300080000000091
:10018000EF030008EF03000800F002F800F0B2F8F7
:100190000AA090E8000C82448344AAF10107DA45E2
:1001A00001D100F0A7F8AFF2090EBAE80F0013F082
:1001B000010F18BFFB1A43F001031847CCB8000029
:1001C000ECB800000A444FF0000C10F8013B13F0AB
:1001D000070408BF10F8014B1D1108BF10F8015BA0
:1001E000641E05D010F8016B641E01F8016BF9D193
:1001F00013F0080F1EBF10F8014BAD1C0C1B09D1EA
:100200006D1E58BF01F801CBFAD505E014F8016B5B
:1002100001F8016B6D1EF9D59142D6D370470000ED
:100220000023002400250026103A28BF78C1FBD8FF
:10023000520728BF30C148BF0B6070476E2900F0DD
:10024000C382702900F0058466290BF0F4816529CA
:100250000BF0F18167290BF0EE8161290BF0ED8144
:1002600003681B0A28BF41F08001692900F07082F1
:10027000642900F06D82752900F06A826F2900F010
:100280009283782900F0D183E92900F02D83E429B5
:1002900000F02A83F52900F02783EF2900F08F83EF
:1002A000F82900F0D0830368DB0928BF41F0800102
:1002B000632901F01781732901F01C81E32901F002
:1002C0002781F32901F02C81002070471FB50BF026
:1002D000ADF901F0BFF90400002000210BF07AF91C
:1002E000401C6060002000210BF08AF9E0601FBD17
:1002F00010B510BD01F088F91146FFF7E7FF09F0CE
:10030000D1FC01F06BFA03B4FFF7F2FF03BC01F07C
:100310006FFA00002C4B19680868B0E8F04F80F3C2
:100320000988BFF36F8F4FF0000080F3118870478A
:100330000000000008480068006880F308884FF05B
:10034000000080F3148862B661B6BFF34F8FBFF32D
:100350006F8F00DF00BF00BF08ED00E0DFF80C008A
:10036000016841F470010160704700BF88ED00E052
:10037000EFF30980BFF36F8F134B1A681EF0100F55
:1003800008BF20ED108A20E9F04F106009B44FF04B
:10039000500080F31188BFF34F8FBFF36F8F0AF0C7
:1003A00007FE4FF0000080F3118809BC1968086847
:1003B000B0E8F04F1EF0100F08BFB0EC108A80F3C9
:1003C0000988BFF36F8F704790000020EFF305801E
:1003D000704700000948804709480047FEE7FEE7EC
:1003E000FEE7FEE7FEE7FEE7FEE7FEE7FEE7FEE7E5
:1003F00004480549054A064B70470000F9640008A7
:1004000089010008C86A0020C8700020C86C00205C
:10041000C86C002053EA020C00F069802DE9F04B13
:100420004FF00006002B1FBFB3FA83F503FA05F463
:1004300024FA05F65E4012BF1643B2FA82F502FABC
:1004400005F4C5F120051EBF22FA05FC44EA0C04A0
:10045000203556EA044C4FEA144418BF641C4FF090
:1004600000084FF00009904271EB030C39D30029CA
:1004700019BFB1FA81F701FA07F6B0FA80F700FA6E
:1004800007F6C7F120071EBF20FA07FC46EA0C0654
:100490002037B6FBF4FCA7EB0507103F07F01F0B56
:1004A000CBF120060CFA0BFB2CFA06F644BFB34640
:1004B0000026202FA4BF5E464FF0000B5BEA060C1F
:1004C00008BF4FF0010B19EB0B09ABFB027C48EBAB
:1004D0000608C01B06FB02CC0BFB03CC71EB0C0126
:1004E000C1E70B46024641464846BDE8F08B13B5CE
:1004F0004FF000004FF00001AFF30080BDE81C405A
:10050000704700001CB50C46064B7B4469460090C2
:10051000204600F072F904460020694600F080F998
:1005200020461CBD1303000070B5064600F0AAF873
:100530000468054630460A22002100F059FB2C6071
:1005400070BD032A40F2308010F0030C00F01580DB
:1005500011F8013BBCF1020F624498BF11F801CBC6
:1005600000F8013B38BF11F8013BA2F1040298BF2B
:1005700000F801CB38BF00F8013B11F0030300F095
:100580002580083AC0F0088051F8043B083A51F839
:1005900004CBA0E80810F5E7121D5CBF51F8043B3E
:1005A00040F8043BAFF30080D20724BF11F8013BB1
:1005B00011F801CB48BF11F8012B24BF00F8013B13
:1005C00000F801CB48BF00F8012B704710B5203A66
:1005D000C0F00B80B1E81850203AA0E81850B1E8FC
:1005E0001850A0E81850BFF4F5AF5FEA027C24BFB2
:1005F000B1E81850A0E8185044BF18C918C0BDE8A9
:1006000010405FEA827C24BF51F8043B40F8043B71
:1006100008BF7047D20728BF31F8023B48BF11F826
:10062000012B28BF20F8023B48BF00F8012B704780
:100630004FF0000200B5134694469646203922BF7B
:10064000A0E80C50A0E80C50B1F12001BFF4F7AFC6
:10065000090728BFA0E80C5048BF0CC05DF804EBA8
:10066000890028BF40F8042B08BF704748BF20F816
:10067000022B11F0804F18BF00F8012B7047704714
:100680007047704700487047646A002070B50446A0
:1006900085690068C10601D5302600E02026C00724
:1006A00007D070BDD4E9012130469047206A401C34
:1006B00020626D1EF6D570BD70B504468569007860
:1006C000C00707D170BDD4E9012120209047206ADE
:1006D000401C20626D1EF6D570BD09684A0501D523
:1006E00040B27047C905FCD500B2704709684A0599
:1006F00001D5C0B27047C905FCD580B2704770B54E
:100700000C460546012A05D02878800600D5EA69FE
:10071000002302E0012305E05B1C934202D2E05C6F
:100720000028F9D1A869E618C01AA861286A1844F7
:1007300028622846FFF7AAFF04E0D5E9012114F852
:10074000010B9047B442F8D32846FFF7B5FF70BDC0
:100750002DE9F0410646002410687529314616A59A
:1007600010D0FFF7BAFF002802DA404213A507E0D5
:1007700031688A0701D512A502E0490704D511A501
:10078000012401E0FFF7B2FF00210A2206F124074D
:1007900009E0B0FBF2FCB0FBF2F302FB1C003030CE
:1007A00078541846491C0028F3D123462A4630467F
:1007B000BDE8F04100F0A5BA000000002D000000E7
:1007C0002B0000002000000011680268006A530539
:1007D00001D508700AE0D30501D5088006E01306AC
:1007E00003D5C217C1E9000200E00860012070478C
:1007F00001694A1C02610878704700B58FB0CDE9E5
:1008000001310021059105497944CDE903101146D4
:10081000684600F029F90FB000BD0000E5FFFFFFBA
:100820000A6802F8010B0A60704700002DE9FF5FBB
:1008300015468A460446DFF8AC80F8440027D8E91C
:1008400000103E46CDE9001010E03AF816106A4656
:1008500002A800F0B8FE411C07D02178890603D514
:10086000E269391891420DD80744761C2078800639
:1008700002D5E069B84205DDAE42E6DB3AF8160083
:100880000028E2D1A069C01BA0612046FFF7FEFE50
:10089000D8E90010CDE90010002017E03AF8181050
:1008A0006A4602A800F08FFEB0F1FF3F81460BD0F0
:1008B00000250DF1080B05E0D4E901211BF8050026
:1008C00090476D1C4D45F7D308F10100B0428046BA
:1008D000E4DB206A384420622046FFF7EDFEBDE8E5
:1008E000FF9F000042B100002DE9F0418046D21D7B
:1008F00022F007020025D2E90002F52915A614D03E
:10090000011E72F1000106DA0023D0EB030063EB55
:10091000020211A608E0D8F800108B0701D50FA637
:1009200002E0490701D50EA601251146002408F171
:10093000240704E000F0A0F930323A55641C50EA74
:100940000102F7D12B46324621464046BDE8F04130
:1009500000F0D7B9000000002D0000002B000000BF
:100960002000000030B4002100F1240408E002F06F
:100970000705D208303542EA4372DB086554491C4A
:1009800052EA0305F3D10468002310A2250707D516
:10099000A40600D421B1C46901230DA2641EC46160
:1009A00030BC00F0AEB910B5044621461068FFF720
:1009B0009DFE02462046BDE810400023D2E7D21D2E
:1009C00022F00701D1E90023CCE70000000000007D
:1009D00030000000F0B40D460188090502D5214C15
:1009E0007C4402E01F4C7C440E34002100F12406BC
:1009F00008E002F00F071209E75D42EA03721B09E3
:100A00007754491C52EA0307F3D1027800231207F6
:100A100004D5702D06D009B1022311342246F0BC52
:100A200000F06FB901231034F8E770B504460D46A5
:100A300021461068FFF75AFE024629462046BDE8C7
:100A400070400023C6E7D21D22F00703D3E900233C
:100A5000C0E70368126843F0200303600823C36102
:100A60000023B7E7A4AF00002DE9F05F89460446F4
:100A70004FF0000ADFF874B1FB44C0F820A0204614
:100A8000E1688847002874D0252806D0D4E90121E0
:100A90009047206A401C2062F1E700265F4620460E
:100AA000E16888472028054607DB312D05D27819F3
:100AB00010F8200C08B10643F1E7B00701D526F085
:100AC0000406C4F81CA00027C4F818A02A2D09D0D9
:100AD000284608F08BFD38B304EB8708303DC8F892
:100AE000185019E059F8041B204604EB8702916165
:100AF000E1688847012F054618D1E069002820DA0F
:100B000026F020061DE0D8F8180000EB800005EB69
:100B100040003038C8F818002046E168884705468C
:100B200008F064FD0028EED1012F0AD02E2D08D147
:100B30002046E16888477F1C0546022F46F02006C4
:100B4000C4DBA069002803DA404246F00106A06138
:100B5000F00701D026F010066C2D0BD0682D09D0BF
:100B60004C2D39D06A2D35D0742D35D07A2D33D017
:100B700016E038E0E1682F4620468847B84205462F
:100B800009D16C2F26D04FF48060E16806432046DF
:100B90008847054604E06C2F1AD04FF48070064356
:100BA0000DB3A5F14100192802D8203546F400669E
:100BB0004A462946204626604E46FFF73FFB80B155
:100BC00001280BD0F61D26F0070000F1080956E7B2
:100BD0004020E4E78020D8E70020D6E706F10409AA
:100BE0004DE7284652E7206ABDE8F09F34AF000089
:100BF0002DE9F04791460F4680460446002614F83A
:100C0000015B2DB100F030F80068405DC007F6D1FF
:100C10002B2D02D02D2D18D0641E4A463946204671
:100C200000F082FC27B13968A14201D1C7F80080E9
:100C30004FF0020471050BD54042002803DDFFF799
:100C400021FD0460A007BDE8F08746F48066E4E774
:100C50000028F8DAFFF716FD04606FF00040F2E7B5
:100C600000487047646A002010B500F0F3FC001DD6
:100C700010BD00BF61A9000030B5B0F10A024FEA13
:100C8000900E71F100034EEA817EB0EB0E0061EB35
:100C900091014FEA101E4EEA017E10EB0E0041EB6F
:100CA00011114FEA102E4EEA016E10EB0E0041EBCF
:100CB00011214FEA104E4EEA014E10EB0E0041EBAF
:100CC0001141401841F100014FEAD00040EA417063
:100CD0004FEAD10110EB80054FEA810444EA907499
:100CE00044EB01046D1944EB0404521BA3414FF083
:100CF000000348BF0A3200D530BD401C41F100015D
:100D000030BD2DE9F0470D4699469246044600F164
:100D100024080168880604D5E06921F010012160EB
:100D200000E00120A84201DD471B00E00027A16987
:100D30007A1902EB0900081AA0612078C00602D4D3
:100D40002046FFF7A3FC002608E0D4E901211AF8A9
:100D500006009047206A401C761C20624E45F4DB5A
:100D60002078C0060AD52046FFF790FC06E0D4E9BB
:100D7000012130209047206A401C2062381EA7F1D4
:100D80000107F4DC07E0D4E9012118F805009047D9
:100D9000206A401C2062281EA5F10105F3DC2046D4
:100DA000FFF78AFC2078000602D50220BDE8F08714
:100DB0000120FBE770472DE9FF4F0C461E464FF020
:100DC000FF378BB0D2E90001DDF860800A908A46D7
:100DD000C1F30A5505B93D46002108464FF0000011
:100DE000BAF1000F00F4400005DA00EB80004FF488
:100DF000400101EA50004FEA9059B9F1010F00DDBE
:100E0000B9460A9850EA4A000ED044F61050A5F2AE
:100E1000FF3545432F14B8F1000F1ED07542291E2F
:100E20001EDDC9F100021CE0B8F1010F4FF0000017
:100E300001D0302103E0F24305E02154401CB042D0
:100E4000FBDB30460022002121540B99C1F80880B9
:100E5000C1E900200FB0BDE8F08FBD1B6D1CDEE7BF
:100E60004A4600DA694206A800F046FC06AB93E861
:100E7000070003AB83E8070050460A9900F0FEFC28
:100E80008DE80700A0F500501F3800900398002D52
:100E90000ADD42F21F014A460844002303A90390D9
:100EA000684600F067FF09E0A0F500504A461F3889
:100EB000002303A90390684600F071FF8DE8070046
:100EC0000004000C03D04FF0FF30410800E0104652
:100ED000B8F1000F03D00022009215461EE0751EE7
:100EE00005D4FFF7C9FE303262556D1EF9D5B34601
:100EF0000122084302D000227F1C04E02078302821
:100F000001D100227F1E002A099784D01DE0112DF7
:100F100007DAFFF7B1FE303262556D1C50EA01026C
:100F2000F5D1084302D00098C8B10EE00021681E38
:100F300005E0235C625C63542254401E491C8142DC
:100F4000F7DBAB46A81B401E0990002004F80B00FD
:100F50000B98099AC0F80880C0E9002B7AE711269F
:100F60004FF0000857E72DE9F04F88460446D21DA0
:100F700022F0070191B0D1E90001CDE90A0108F0A2
:100F8000FBFA02460B98C00F01D02D2007E0206825
:100F9000810701D52B2002E0202101EAC000032AAD
:100FA000099001D0072A05DB03464146204600F0A0
:100FB00055FB0BE12078800601D5E06900E00620B2
:100FC000B8F1650F814606D0B8F1660F18D0B8F1B8
:100FD000670F70D131E00020B9F1110F009001DBF3
:100FE000112301E009F101030AAA01A90CA8FFF7E6
:100FF000E2FEDDE90C70002609F10105834647E0B9
:1010000001204B4600904FF000470AAA01A90CA806
:10101000FFF7D1FEDDE90DB00C995D46002610B951
:1010200009F101000D18B9EB050003D4C0F1FF363A
:1010300009F10105A5EB09002BE0B9F1010F01DA77
:101040004FF001090020B9F1110F0090484601DD71
:10105000112300E003460AAA01A90CA8FFF7ABFE82
:10106000DDE90C704D4600268346207800070AD43F
:10107000AB4500DA5D4601A8012D04DD411911F8E8
:10108000011C302907D04F4502DA17F1040F04DAAA
:10109000012082460FE06D1EEEE7002F02DCED1B03
:1010A0003E4403E0781CA84200DD7D1CB81B00F123
:1010B000010A4FF000472078000703D4AA4501DB5E
:1010C0004FF0FF3A0021B7F1004F0DF143088DF8C2
:1010D000431024D002202B23002F01DA7F422D233E
:1010E0000A21021EA0F1010000DC5FB197FBF1FCB8
:1010F00097FBF1F201FB1C7C17460CF1300C08F851
:1011000001CDEEE7A8F1010003702188090501D5A2
:10111000452100E06521A0F1010800F8011C0998B3
:101120000FA9A1EB0807FF1D00B10120411901EB38
:10113000EA70A1693844081A401EA0612078C006F0
:1011400002D42046FFF7A2FA099828B1D4E9012178
:101150009047206A401C20622078C00622D5204695
:10116000FFF794FA1EE0002E04DBB34502DD01A870
:10117000805D00E03020D4E901219047206A401CC6
:101180002062761CAAF101005FEA000A0AD100F091
:1011900061FAC0680168405CD4E901219047206A87
:1011A000401C2062281EA5F10105DCDC07E0D4E923
:1011B000012118F8010B9047206A401C2062381E5C
:1011C000A7F10107F3DC2046FFF776FA032011B000
:1011D00041E600002DE9F04F04460D46D21D22F0F5
:1011E000070089B0D0E900974846394608F0C4F9AD
:1011F0000246F80F01D02D2307E02068810701D5B2
:101200002B2302E0202101EAC0038DF820300BB12E
:10121000012000E00020032A824601D0072A04DBD7
:101220002946204600F01AFA3FE12078800601D4D2
:101230000D2500E0E569C7F30A560D2D49DA0021B6
:101240004FEA175B08464FF00000002F00F4400003
:1012500007DA00EB80004FF4400100EBD07001EAA8
:1012600060008115012901DD4FF0FF3100224FEAB6
:10127000850CBCF1180F06D31346ACF118004FF0E3
:101280008052C24003E04FF4801323FA0CF30CF1B8
:101290000C0CBCF1200F04D3ACF1200C09FA0CF0BB
:1012A00001E007FA0CF000294FF0004801DD18B901
:1012B0000FE00ED140450CD319EB02095F4121B973
:1012C000404502D19F4329EA0209BBEB175F00D0DA
:1012D000761C2088000502D57B48784402E07A48D5
:1012E0007844193808AA302302F80A30037C0AF13E
:1012F0000101002E0AF1020A53546A4602DC4FF043
:10130000300101E04FF031014FF001088DF800107D
:1013100002D0A6F2FF3603E059EA470100D06B4E37
:10132000002D02DC2178090704D54FF002082E2198
:101330008DF80110C44600210BE0C7F303433F01C1
:10134000C35C491C6D1E02F80830052908F101082C
:1013500001DA002DF1DC00210CE000EB1973491CCF
:101360001B786D1E082902F808304FEA091908F1A8
:10137000010801DA002DF0DC21688B0602D516E0A9
:10138000A8F10108E04505DD02EB080313F8013C74
:10139000302BF5D0B8F1000F09DD02EB080313F88C
:1013A000013C2E2B03D1090701D4A8F10108002D1F
:1013B00005DD3E2102F808106D1E08F10108407C91
:1013C000002E02F8080008F1010804DA2D20764208
:1013D00002F8080002E02B2002F808000A214FF46E
:1013E0007A70864208F101080BDB96FBF0F330338C
:1013F00002F8083096FBF0F308F1010800FB1366D1
:1014000001E0642E0CDB642096FBF0F3303302F82D
:10141000083096FBF0F308F1010800FB136601E0C9
:101420000A2E06DB96FBF1F0303002F8080008F1D6
:10143000010896FBF1F001FB1060303002F8080063
:10144000A16908F1010808EB050202EB0A00081A7D
:10145000A0612078C00602D42046FFF717F9216A60
:1014600008AE01EB0A00206204E0D4E9012116F87D
:10147000010B9047BAF1010AF7D22078C00602D5D5
:101480002046FFF703F96E4609E016F8010B3E28E7
:101490000FD0D4E901219047206A401C2062B8F1A6
:1014A0000108F2D22046FFF707F909B00320BDE892
:1014B000F08F206A2844206203E0D4E90121302023
:1014C00090476D1EEBD3F8E7F6A6000002FCFFFF85
:1014D00010B5436913B1AFF3008001E0FFF70FF9D6
:1014E000012010BD127800F124010A7000224A7018
:1014F0000122EDE711684FF0FF32E9E710B54369CB
:1015000013B1AFF3008001E0FFF790F9012010BDA7
:10151000128800F1240182840022C2840122EDE7B6
:1015200011684FF0FF32E9E72DE9F05F824615467A
:101530008B4600270AF10104B9460078302801D013
:101540009DB113E014F8010B0127782803D0582827
:1015500001D045B10AE00DB1102D07D1002714F8D4
:10156000010B102502E0082500E00A250026B04600
:101570000EE005FB080005FB06F101271FFA80F8C5
:1015800001EB1046B6F5803F00D3B94614F8010BC5
:10159000294600F0A3F80028EBDABBF1000F05D0D4
:1015A0000FB1641E00E05446CBF80040B9F1000FC3
:1015B00006D0FFF767F802210160C81EBDE8F09F62
:1015C00048EA0640FAE770B516460C460546FFF7AE
:1015D0004BFB036893F80101012806D0FF2C0FD8BC
:1015E000185D68B101202C7070BDD3F80701324638
:1015F000214603F2071303442846BDE8704018470C
:101600004FF0FF3070BD70477546FFF729FBAE46BF
:1016100005006946534620F00700854618B020B5FE
:10162000FEF7E6FEBDE820404FF000064FF0000751
:101630004FF000084FF0000B21F00701AC46ACE87A
:10164000C009ACE8C009ACE8C009ACE8C0098D46E7
:101650007047000000487047846A00202DE9F0417F
:101660001F46044603260168072A01F4006004DBD4
:1016700008B116A505E016A503E008B115A500E020
:1016800015A521F010002060A069C01EA0610FB157
:10169000401EA0612046FEF7F9FF4FB1D4E90121B9
:1016A00038469047206A401C2062C01C206206E039
:1016B000206AFAE7D4E9012115F8010B9047761E5C
:1016C000F8D22046FEF7F8FFBDE8F0814E414E000B
:1016D0006E616E00494E4600696E66003A2800D27F
:1016E000303820F02002412A01D3A2F1370088428D
:1016F00001D34FF0FF3070472DE9F0478146164681
:101700008AB0354878440DC88DE80D0032487844D9
:10171000801C03AC0DC884E80D0041F69B300844E2
:10172000372190FBF1F290FBF1F5A5F1800501FB6B
:1017300012041B3C02D56442012000E00020DFF8C7
:1017400098A080460027FA44AAF1BE0A0EE0E007FE
:101750000AD03246684607EB470101230AEB8101B4
:1017600000F01DFB8DE8070064107F1C002CEED1FB
:10177000194F7F44AE3F19E0E80715D007EB04107E
:101780000DF1180A90E80E008AE80E00C068F042D9
:1017900001D1981908903246012306A903A800F048
:1017A000FEFA03AB83E807006D10641C002DE3D143
:1017B0004FF0010332466946B8F1000F03A802D08A
:1017C00000F0D8FA01E000F0EAFAC9E90001C9F82E
:1017D00008200AB0BDE8F0875CA3000010B50446FD
:1017E000AFF300802046BDE81040FEF78CBD00003E
:1017F00001491820ABBEFEE7260002004FF0013C75
:1018000050F8042B51F8043B9A4221D1A2EB0C036F
:10181000934313EACC1317D150F8042B51F8043B2F
:101820009A4215D1A2EB0C03934313EACC130BD1CC
:1018300050F8042B51F8043B9A4209D1A2EB0C0357
:10184000934313EACC13DBD04FF00000704700BF86
:10185000D01A01BAB1FA81F101F0180122FA01F0AF
:10186000CB40C1F12001DBB2C0B2C01A2CFA01F3A7
:10187000D11A914311EAC311E6D170475FEA400CD7
:1018800008BF91F0000F4FEA8C234FEAC12243EAD0
:1018900051514FEA1C5018BF00F5F0404FEA30009C
:1018A00018BF41F000415FEA6C5C00F02980BCF198
:1018B000FF3F08BF40F080407047130C06BF120482
:1018C0004FF0100C4FF0000C130E04BF12020CF17D
:1018D000080C130F04BF12010CF1040C930F04BF8A
:1018E00092000CF1020CD30F04BF52000CF1010C5A
:1018F00011464FF00002A0F11F00A0EB0C00704752
:1019000011F0004F08BF704731F000413FF4D5AFF0
:101910000B0C06BF09044FF0100C4FF0000C0B0E1F
:1019200004BF09020CF1080C0B0F04BF09010CF1F4
:10193000040C8B0F04BF89000CF1020CCB0F04BF09
:1019400049000CF1010CCCF12003A0EB0C0022FAB1
:1019500003F302FA0CF241EA030100F101007047BF
:1019600020F07F4C80EA030023F07F47ACEB0703B5
:1019700003F57C5300F0004003F1FF032DE980499B
:101980004FEA154B09B44FEA144325EA0B4E24EAFB
:1019900003480FF2042606EB132749083E785FEA56
:1019A000320203FB0667C7F5000707FB06F64FEA9E
:1019B00054374FEAD64606F1020607FB066CCCF117
:1019C000005C4FEA1C472CEA074C07FB06F40CFBB3
:1019D00006F504EB15464FEA961634BF00204FF08B
:1019E00000404FEAD13706FB07FC4FEA1C4C0CFBCA
:1019F0000BF7D21B03FB0CF761EB07010CFB0EF797
:101A0000B0EB074072EB17420CFB08F734BFA2EBB8
:101A10000742B2EB074261EB17414FEA0C444FEA31
:101A2000910706FB07FC4FEA1C4C0CFB0BF7B0EBD5
:101A3000C74072EB573203FB0CF734BFA2EBC7422F
:101A4000B2EBC74261EB57310CFB0EF7B0EBC700AE
:101A500072EB57720CFB08F734BFA2EBC702B2EB74
:101A6000C70261EB5771039F4FEA816141EA92110E
:101A700004EBCC044FEAD1374FEA826206FB07FC45
:101A800042EA90124FEA80604FEA1C4C0CFB0BF7C5
:101A9000D21B03FB0CF761EB07010CFB0EF7B0EB5D
:101AA000074072EB17420CFB08F734BFA2EB07426A
:101AB000B2EB074261EB17414FEA8C554FEA9107B1
:101AC00004EB9C2406FB07FC4FEA1C4C0CFB0BF7B9
:101AD000B0EBC74072EB573203FB0CF734BFA2EBFD
:101AE000C742B2EBC74261EB57310CFB0EF7B0EBCC
:101AF000C70072EB57720CFB08F734BFA2EBC702AA
:101B0000B2EBC70261EB577115EB4C254FEA8161CF
:101B100041EA92114FEA82624FEAD13742EA9012CB
:101B200006FB07FC44F100044FEA80604FEA1C4CBE
:101B30000CFB0BF7D21B03FB0CF761EB07010CFB53
:101B40000EF7B0EB074072EB17420CFB08F734BFFF
:101B5000A2EB0742B2EB074261EB174115EB1C15F4
:101B60004FEA813141EA92414FEA823242EA9042A1
:101B70004FEA80304FEA0C7644F1000448EA034310
:101B80004EEA0B484FF0000EB2EB080C71EB030766
:101B900024BF624639464EEB0E0E4FF0000B001884
:101BA000524149414BEB0B0BB2EB080C71EB0307B5
:101BB0007BF1000B24BF624639464EEB0E0E4FF010
:101BC000000B0018524149414BEB0B0BB2EB080CD8
:101BD00071EB03077BF1000B24BF624639464EEBE5
:101BE0000E0E51EA020718BF46F0010616EB0E76FC
:101BF00055F1000254F1000103D5BDE88901BDE8AB
:101C00000088BDE88901BDE80048B619524141EBA2
:101C10000101A3F10103704780807F7E7D7C7B7A88
:101C20007978777676757473727171706F6E6E6D88
:101C30006C6C6B6A6A69686867666665646463632E
:101C400062616160605F5F5E5E5D5D5C5C5B5B5AB4
:101C50005A59595858575756565555555454535321
:101C600052525251515050504F4F4F4E4E4D4D4D7C
:101C70004C4C4C4B4B4B4A4A4A49494948484847C7
:101C80004747474646464545454444444443434305
:101C90004342424242414141002B9C4630D47700AE
:101CA0002BD01CB54FEA370703B44FF010004FF0AC
:101CB0001001BAF1000F06D0BCF1000FDCBF40F0FC
:101CC000080040F008014FF000000FBCBDE81040D4
:101CD0000BF1010BBBF1010F08BF5FEA170722BF31
:101CE00012F1010211F101014FF0004143F1000333
:101CF00000F0004043EA00007047F9D35708D0E7EE
:101D000046EA064613F1400F4FEA16461FDD13F16F
:101D1000200FDFBF16430A46002120335B42BED0AE
:101D2000C3F1200746EA064602FA07F74FEA1646CD
:101D300046EA0706C3F1200722FA03F201FA07F781
:101D400021FA03F14FF0000342EA0702A7E746EA4F
:101D5000020646EA06464FEA164646EA0106BCBFB8
:101D600046EA0646360C4FF000034FF000024FF0F3
:101D7000000194E72DE9804C9A46934670B491E8AF
:101D8000380007C831EA400C48BF34EA430C03D599
:101D9000FFF7E6FDFFF780FFF0BCBDE8008C2DE902
:101DA000804C9A46934670B491E8380007C810F00A
:101DB000804F08BF13F0804F03D100F005F8FFF704
:101DC0006BFFF0BCBDE8008C20F07F4780EA030089
:101DD00023F07F4C07EB0C03A3F57C5300F000408D
:101DE000A3F1FE0392F0000F00F0B38095F0000F16
:101DF00000F077802DE901494FEA11404FEA14467F
:101E000021EA004800FB06FC24EA064708FB06F628
:101E100007FB08F800FB07F718EB06484CEB164CDD
:101E20004FEA124B18EB07484FEA15464CEB1740A8
:101E300022EA0B4E0BFB06FC25EA06470EFB06F6D4
:101E400007FB0EFE0BFB07F71EEB064E4CEB164C8A
:101E50004FF000061EEB074E4CEB174B18EB0B0830
:101E600040F1000018EB0E0B58EB000840F10000A9
:101E70008F1A4FF000013CBFC943661B14BFB5EB7E
:101E8000040C00213CBFC943F61B4FEA17444EEA3D
:101E90008E0E27EA04454FEA1C4704FB07622CEA32
:101EA000074C05FB07F70CFB05F604FB0CFC16EBD7
:101EB000074642EB174216EB0C4642EB1C421BEB6B
:101EC000060658EB0202414146EA9E0601D5BDE8EE
:101ED0000189B619524141EB0101A3F10103BDE8AB
:101EE00001894FEA14454FEA114724EA054621EAE1
:101EF000074C05FB07F406FB07F70CFB06F105FB97
:101F00000CFC11EB074144EB17444FEA124711EB6D
:101F10000C4144EB1C4422EA074C05FB07F206FB8C
:101F200007F70CFB06F605FB0CFC16EB074642EB2D
:101F3000174216EB0C4642EB1C456A1854F100019F
:101F400048BF7047B619524141EB0101A3F10103AB
:101F5000704795F0000F37D04FEA11424FEA14470F
:101F600021EA024624EA074C02FB07F106FB07F7C9
:101F70000CFB06F402FB0CFC14EB074441EB17418D
:101F80004FEA154714EB0C4441EB1C4125EA074C82
:101F900002FB07F506FB07F70CFB06F602FB0CFC41
:101FA00016EB074645EB174516EB0C4645EB1C4276
:101FB000121951F1000148BF7047B619524141EB67
:101FC0000101A3F1010370474FEA14454FEA11479D
:101FD00024EA054621EA074C05FB07F106FB07F753
:101FE0000CFB06F24FF0000605FB0CFC12EB07425F
:101FF00041EB174112EB0C4251EB1C4148BF7047BB
:10200000921841EB0101A3F10103704700BFFEE705
:1020100010B5024800F013FC10BD0000BC05002004
:10202000F8B507460C4615461E464FF400700D499C
:10203000086000208860C86008200861380A0A49E2
:1020400008704F70200A8870CC70280A08714D7192
:10205000300A8871CE716B460A460249034800F087
:10206000ECF9F8BDF00A00203E000020BC0500207D
:102070000346042B15D007DC7BB1012B0ED0022BBD
:102080000DD0032B12D10BE0202B0BD0212B0AD02B
:10209000222B09D0232B09D107E008E007E006E056
:1020A00005E004E003E002E001E000E000BF00BF63
:1020B000002070470020704710B5002204490548F1
:1020C00005F0D7F80449034805F0C4F8002010BD16
:1020D000605B0020844E00206053002070B50446F1
:1020E0000D462146054805F0B5F8044805F07EF890
:1020F0000348007803490870002070BD844E00201A
:10210000605300204C00002010B503460C4600210F
:10211000084610BD10B5024800F02EFF10BD0000AB
:102120002008002010B5024800F026FF10BD000076
:10213000A009002010B5024800F01EFF10BD0000ED
:102140008008002010B5024800F016FF10BD000006
:10215000000A002010B5024800F00EFF10BD00007C
:10216000E008002010B5024800F006FF10BD000096
:10217000600A002010B5024800F0FEFE10BD00000D
:10218000400900200146087810381823B0FBF3F20C
:102190000848805CC865032A05D908686FF3090000
:1021A000001D886503E008686FF309008865886D85
:1021B000704700005CB60008014600208A6A8B69FF
:1021C000CBB932B1012A0DD0022A03D0032A10D193
:1021D0000EE000BFCB6A03F08073B3F1807F00D1C3
:1021E000012007E0CB6AB3F1C07F00D1012001E0FC
:1021F00000E000BF34E08B69B3F5005F1AD132B163
:10220000012A07D0022A03D0032A11D10AE000BF15
:1022100001200EE0CB6A03F08073B3F1807F00D120
:10222000012006E0CB6AB3F1C07F00D1012000E0BD
:1022300000BF15E032B1012A05D0022A04D0032ADA
:102240000CD103E000BF00BF012008E0CB6A03F01F
:102250008073B3F1807F00D1012000E000BF00BF98
:10226000704770472DE9FF4706460F4615469846CA
:10227000DDE90D9A0C9C00200090019002900390E3
:102280008DF80060FD208DF801008DF80270281295
:102290008DF80300E8B28DF804008DF80580200E5B
:1022A0008DF80600200C8DF80700200A8DF8080034
:1022B000E0B28DF809008DF80A908DF80BA06B2024
:1022C0008DF80C000D21684607F004FBBDE8FF8780
:1022D0007FB506460D460024002000900190029034
:1022E00003900DF80460641C112D68D2DFE805F03E
:1022F000090F151B672167272D33393F6745515C4F
:102300004B001F200DF80400601CC4B258E02020D0
:102310000DF80400601CC4B252E021200DF8040046
:10232000601CC4B24CE024200DF80400601CC4B250
:1023300046E027200DF80400601CC4B240E03120C4
:102340000DF80400601CC4B23AE033200DF804001C
:10235000601CC4B234E035200DF80400601CC4B227
:102360002EE036200DF80400601CC4B228E03720AF
:102370000DF80400601CC4B222E03A200DF80400FD
:10238000601CC4B21CE03B200DF80400601CC4B209
:1023900016E042200DF80400601CC4B26C200DF859
:1023A0000400601CC4B20BE043200DF80400601C64
:1023B000C4B27A200DF80400601CC4B200E000BF73
:1023C00000BF6B200DF80400601CC4B221466846B3
:1023D00007F080FA7FBD72B600BFFEE770B50A480D
:1023E0000468001D0568001D0668344454B10822C5
:1023F0000649204603F0DEFB04220449103128463A
:1024000003F0D8FB70BD0000107AFF1F32010020DE
:1024100010B5024692F82030012B01D0022B06D1D4
:1024200010684069084314686061002010BD506A5C
:1024300040F4802050620120F8E7F0B504460D46D4
:102440001E4694F8207020688368A86800B900E0F0
:1024500000BF012F01D0022F7DD103F0806030B981
:1024600003F0006018B903F0805000287ED0C3F359
:102470000161012088403060A86860B9B5F800C0EB
:10248000E86840EA4C5C206800F5C07000EB011081
:10249000C0F800C00FE0D5E901C040EACC00D5F893
:1024A0000CC040EA0C00D4F800C00CF5C07C0CEB6A
:1024B000011CCCF80000D5F810C0206800F5C070F1
:1024C00000EB0110C0F804C0287D01280ED120685F
:1024D00000F5C07000EB0110406840F4807C20687B
:1024E00000F5C07000EB0110C0F804C0D079000600
:1024F00092F806C040EA0C4092F805C040EA0C2071
:1025000092F804C040EA0C00D4F800C00CF5C07C7E
:102510000CEB011CCCF80C00D078000692F802C03D
:1025200040EA0C4092F801C040EA0C2092F800C04A
:1025300040EA0C00D4F800C00CF5C07C0CEB011C88
:10254000CCF80800206800F5C07000EB01100068AE
:1025500040F0010C01E00FE008E0206800F5C070D9
:1025600000EB0110C0F800C00020F0BD606A40F42C
:10257000001060620120F8E7606A40F48020606229
:102580000120F2E7F0B504460A46216894F820508D
:10259000012D01D0022D7ED1424901F5007108685C
:1025A00040F001000860086820F47C50086008686A
:1025B000566A40EA06200860107D00F01F060120E0
:1025C00000FA06F3C8699843C861A1F50071D069A3
:1025D000C8B9D1F80C029843C1F80C02908880B2B7
:1025E000968940EA064601F51070576940F8376051
:1025F000108880B2168940EA064601F510705769C6
:1026000000EBC7004660D069012819D1D1F80C024F
:102610001843C1F80C02908880B2168840EA06463A
:1026200001F51070576940F83760908980B21689BB
:1026300040EA064601F51070576900EBC700466096
:10264000906928B9D1F804029843C1F8040204E063
:10265000D1F804021843C1F80402106928B9D1F86E
:1026600014029843C1F8140204E0D1F8140218438C
:10267000C1F81402106A012804D1D1F81C021843D1
:10268000C1F81C02D1F8000220F00100C1F80002DC
:102690000020F0BDFFE7606A40F480206062012006
:1026A000F7E7000000640040704770B5044694F8F6
:1026B0002050012D01D0022D7DD151B92068C06874
:1026C00000F0030080B9606A40F4001060620120ED
:1026D00070BD2068006900F0030028B9606A40F40A
:1026E000001060620120F3E7206800F5D87000EB6D
:1026F0000110006800F004009060906840B9206804
:1027000000F5D87000EB01100068400D106007E084
:10271000206800F5D87000EB01100068C008506018
:10272000206800F5D87000EB0110006800F002008E
:10273000D060206800F5D87000EB0110406800F010
:102740000F00082802D30820106108E0206800F577
:10275000D87000EB0110406800F00F001061206895
:1027600000F5D87000EB0110406800F47F40000ACB
:102770009061206800F5D87000EB01104068000CF3
:102780005061206800F5D87000EB01108068187067
:10279000206800F5D87000EB0110806800F47F40DD
:1027A000000A5870206800F5D87000EB01108068AE
:1027B00000F47F0000E03CE0000C9870206800F519
:1027C000D87000EB01108068000ED870206800F50A
:1027D000D87000EB0110C0681871206800F5D8703F
:1027E00000EB0110C06800F47F40000A58712068B7
:1027F00000F5D87000EB0110C06800F47F00000CF9
:102800009871206800F5D87000EB0110C068000EC8
:10281000D87131B92068C06840F020002668F060A7
:1028200005E02068006940F0200026683061002043
:102830004EE7606A40F480206062012048E72DE99D
:10284000F05F04460025206846692068D0F80490AF
:10285000206887682068D0F80CA02068D0F810B0F5
:102860002068D0F8188006F00100002855D007F045
:102870000100C0B101202168886007F0020018B192
:10288000204600F0DEFA0EE007F0040010B145F437
:10289000006508E007F0080010B145F4805502E03B
:1028A000204600F0CDFA07F48070C8B14FF4807074
:1028B0002168886007F4007018B1204600F0C3FA60
:1028C0000EE007F4806010B145F4005508E007F40D
:1028D000006010B145F4804502E0204600F0B2FAF5
:1028E00007F48030C8B14FF480302168886007F465
:1028F000003018B1204600F0A8FA0EE007F480205E
:1029000010B145F4004508E007F4002010B145F48B
:10291000803502E0204600F097FA06F0080038B152
:102920000AF0100020B145F4007510202168C8603D
:1029300006F0040040B10AF0080028B10820216820
:10294000C860204600F0A8F906F0020038B12068FF
:10295000C06800F0030010B1204600F09FF906F0B7
:10296000400038B10BF0100020B145F48065102014
:102970002168086106F0200040B10BF0080028B182
:10298000082021680861204600F028FA06F01000AF
:1029900038B12068006900F0030010B1204600F053
:1029A0001EFA06F4003040B109F0100028B11020E2
:1029B00021684860204600F013FA06F4803040B1E8
:1029C00009F0080028B1082021684860204600F07E
:1029D0003DFA06F4004088B309F0040078B306F429
:1029E000807020B108F0010008B145F0010506F43F
:1029F000007020B108F0020008B145F0020506F4AD
:102A0000806020B108F0040008B145F0040506F428
:102A10000060A0B108F0700088B108F07000402894
:102A200017D006DC10280BD020280CD0302819D164
:102A30000CE0502810D0602814D110E01DE019E0FF
:102A400045F008050FE045F010050CE045F02005C5
:102A500009E045F0400506E045F0800503E045F457
:102A6000807500E000BF00BF2068806920F0700022
:102A7000216888610420216848602DB1606A28437C
:102A800060622046FFF710FEBDE8F09F70B5044677
:102A90000CB9012070BD94F8200010B9204600F058
:102AA000AFF82068006840F001002168086000F07D
:102AB0000DFD05460DE000F009FD401B0A2808D970
:102AC000606A40F400306062052084F82000012034
:102AD000E0E72068406800F001000028EBD02068A3
:102AE000006820F002002168086000F0EFFC054655
:102AF0000DE000F0EBFC401B0A2808D9606A40F4A6
:102B000000306062052084F820000120C2E72068C0
:102B1000406800F002000028EBD1207E012806D199
:102B20002068006840F080002168086005E02068A7
:102B3000006820F0800021680860607E012806D1CE
:102B40002068006840F040002168086005E02068C7
:102B5000006820F0400021680860A07E012806D1AE
:102B60002068006840F020002168086005E02068C7
:102B7000006820F0200021680860E07E012806D16E
:102B80002068006820F010002168086005E02068D7
:102B9000006840F0100021680860207F012806D1FD
:102BA0002068006840F008002168086005E020689F
:102BB000006820F0080021680860607F012806D1C5
:102BC0002068006840F004002168086005E0206883
:102BD000006820F0040021680860D4E9020108437D
:102BE00021690843616908436168491E08432168F7
:102BF000C86100206062012084F82000002049E7BD
:102C000010B586B00446142101A8FDF711FD1F4937
:102C10002068884237D100BF002000901C4800681F
:102C200040F000701A4908600846006800F0007023
:102C3000009000BF00BF00BF002000901448103873
:102C4000006840F008001249103908600846006822
:102C500000F00800009000BF00BF03200190022098
:102C6000029000200390032004900920059001A900
:102C7000084800F02BFB00220521142000F0BAFCCC
:102C8000142000F0A3FC06B010BD0000006400405A
:102C900040380240000C02407047000010B58AB076
:102CA00004464949206888427ED101AB03AA00212D
:102CB0002046FFF7FAFC0398A0F2012030B101286A
:102CC00022D002283ED004287AD159E09DF8050090
:102CD0009DF8041040EA01203C4988809DF80700D7
:102CE0009DF8061040EA012000B23849C8809DF8DE
:102CF00009009DF8081040EA012000B2334908811C
:102D00009DF80A0088725BE09DF805009DF80410AC
:102D100040EA01202E4988809DF807009DF80610A2
:102D200040EA012000B22A49C8809DF809009DF8B8
:102D3000081040EA012000B2254908819DF80A00E8
:102D400088723DE09DF805009DF8041040EA0120DE
:102D5000204988809DF807009DF8061040EA012070
:102D600000B21C49C8809DF809009DF8081040EA8F
:102D7000012000B2174908819DF80A0088721FE0FF
:102D80009DF805009DF8041040EA01201249888052
:102D90009DF807009DF8061040EA012000B20E4998
:102DA000C8809DF8090000E00BE09DF8081040EA9B
:102DB000012000B2084908819DF80A00887200BF0E
:102DC00000BF0AB010BD000000640040CC0A002023
:102DD000D80A0020E40A0020C00A0020704770478B
:102DE000704770B5044694F82000012822D10220D3
:102DF00084F820002068006820F001002168086045
:102E000000F064FB05460DE000F060FB401B0A2863
:102E100008D9606A40F400306062052084F8200020
:102E2000012070BD2068406800F001000028EBD14F
:102E30006062F6E7606A40F4002060620120F0E71B
:102E4000704770477047704770477047704710B5BC
:102E500004460CB9012010BD607920B90020207112
:102E6000204600F005F8012060710020F3E7000023
:102E700008B50A4A016891420FD100BF00210091B4
:102E80000749096841F48051054A116011460968F3
:102E900001F48051009100BF00BF08BD0030024026
:102EA0003038024070B50446A56D00F00FFB0646B1
:102EB00094F83500022808D08020606500BF00200B
:102EC00084F8340000BF012070BD2068006820F045
:102ED0001600216808602068406920F080002168A1
:102EE0004861206C08B9A06C28B12068006820F007
:102EF0000800216808602068006820F0010021684F
:102F0000086010E000F0E2FA801B05280BD92020B1
:102F10006065032084F8350000BF002084F8340089
:102F200000BF0320D0E72068006800F001000028FF
:102F3000E8D194F85C103F208840A860012084F814
:102F4000350000BF002084F8340000BF00BFBBE79D
:102F5000014691F83500022803D080204865012001
:102F60007047052081F835000868006820F00100EE
:102F70000A6810600020F3E7F8B5044600200090CE
:102F80008C4800684FF41651B0FBF1F7A56D2E6820
:102F900094F85C1008208840304098B120680068A0
:102FA00000F0040070B12068006820F0040021687F
:102FB000086094F85C1008208840A860606D40F0BC
:102FC0000100606594F85C1001208840304068B1D1
:102FD0002068406900F0800040B194F85C10012046
:102FE0008840A860606D40F00200606594F85C1055
:102FF00004208840304068B12068006800F002007A
:1030000040B194F85C1004208840A860606D40F0E6
:103010000400606594F85C1010208840304078B35C
:103020002068006800F0080050B394F85C1010208D
:103030008840A8602068006800F4802080B1206883
:10304000006800F4002028B9206CC8B12046216C2B
:10305000884715E0A06C98B12046A16C88470FE026
:103060002068006800F4807028B92068006820F0AB
:10307000080021680860206C10B12046216C884748
:1030800094F85C10202088403040002865D02068EB
:10309000006800F0100000285FD094F85C10202039
:1030A0008840A86094F83500052828D12068006879
:1030B00020F01600216808602068406920F0800038
:1030C00021684861206C08B9A06C28B120680068AC
:1030D00020F008002168086094F85C103F208840C8
:1030E000A860012084F8350000BF002084F8340077
:1030F00000BF206D10B12046216D8847F8BD2068C3
:10310000006800F4802080B12068006800F400208E
:1031100028B9606C10B12046616C88471DE0E06BF7
:10312000D8B12046E16B884717E02068006800F4BA
:10313000807068B92068006820F01000216808607D
:10314000012084F8350000BF002084F8340000BF5F
:10315000E06B10B12046E16B8847606D38B3606D5D
:1031600000F00100F0B1052084F835002068006807
:1031700020F001002168086000BF0098401C00900A
:10318000B84200D905E02068006800F0010000287E
:10319000F3D100BF012084F8350000BF002084F87F
:1031A000340000BFE06C10B12046E16C884700BFDE
:1031B000A4E70000380000202DE9F0410446002576
:1031C00000F084F9074614B90120BDE8F081606A77
:1031D00000B100BF022084F8350000BF002084F851
:1031E000340000BF2068006820F0010021680860FA
:1031F0000AE000F06BF9C01B052805D920206065A6
:10320000032084F83500E0E72068006800F0010042
:103210000028EED12068056821480540D4E9010165
:103220000843E16808432169084361690843A169CB
:103230000843E1690843216A08430543606A04289A
:1032400003D1D4E90B0108430543206805602068D9
:10325000456925F00705606A0543606A04280DD1B9
:10326000A06A0543E06A48B12046FEF7A5FF28B1F1
:1032700040206065012084F83500A6E7206845619C
:103280002046FEF77FFF064694F85C103F208840FA
:10329000B06000206065012084F83500002094E7CC
:1032A0003F8010F070B5044600F010F90646254640
:1032B000681C10B104480078054400BF00F006F90E
:1032C000801BA842FAD370BD34000020F8B5024636
:1032D0000B460025002400200021D6E0012606FA36
:1032E00001F51E6806EA0504AC4274D11E7906F0A9
:1032F0000306012E04D01E7906F00306022E13D118
:1033000090684F000326BE40B0434F00DE68BE40C9
:1033100030439060506801268E40B0431E79C6F35A
:1033200000168E40304350601E7906F00306032ECF
:1033300009D0D0684F000326BE40B0434F009E68BE
:10334000BE403043D0601E7906F00306022E13D132
:10335000CF0802F1200656F827004E07F70E0F2679
:10336000BE40B0434F07FF0E1E69BE403043CF083A
:1033700002F1200646F8270010684F000326BE40E1
:10338000B0431E7906F003064F00BE403043106084
:103390005E6806F44036002E76D000BF0026009608
:1033A0003C4E366846F480463A4F3E603E463668AC
:1033B00006F48046009600BF00BF374E8F0856F8CF
:1033C00027008E07370F0F26BE40B043334EB24260
:1033D00002D1002624E057E0314EB24201D101264D
:1033E0001EE0304EB24201D1022619E02E4EB2420A
:1033F00001D1032614E02D4EB24201D104260FE084
:103400002B4EB24201D105260AE02A4EB24201D12A
:10341000062605E0284EB24201D1072600E0082624
:103420008F073F0FBE4030431B4E8F0846F82700E2
:10343000224E3068A0435E6806F4801606B1204331
:103440001E4E3060361D3068A0435E6806F40016DC
:1034500006B12043194E361D3060184E361F3068B5
:10346000A0435E6806F4003606B12043134E361FB3
:103470003060361F3068A0435E6806F4803606B1BF
:1034800020430E4E083E3060491C1029FFF426AF41
:10349000F8BD0000443802400838014000000240F6
:1034A0000004024000080240000C024000100240EC
:1034B0000014024000180240001C0240083C014079
:1034C0000AB1816101E00B04836170470148006823
:1034D000704700002C000020034800680349097869
:1034E00008440149086070472C0000203400002087
:1034F00010B50D48006840F400700B49086008469C
:10350000006840F4806008600846006840F48070FD
:103510000860032000F0ACF80F2000F007F800F07E
:103520002BF8002010BD0000003C024070B504469E
:103530000E4800784FF47A71B1FBF0F00C4909683D
:10354000B1FBF0F5284601F03BFB08B1012070BD4E
:10355000102C07D200222146501E00F04BF80548DF
:10356000046001E00120F2E70020F0E734000020D1
:10357000380000203000002008B500BF0020009077
:103580001148006840F480400F4908600846006810
:1035900000F48040009000BF00BF00BF00200090FA
:1035A000081F006840F08050091F08600846006846
:1035B00000F08050009000BF00BF00220F21901E3D
:1035C00000F018F808BD00004438024001460846E3
:1035D00000280DDB00BF00BF00F01F0301229A404E
:1035E00043099B0003F1E023C3F8002100BF00BFA3
:1035F00000BF70472DE9F05F80460D461646002754
:1036000005F0D2FF074639462A46334601F0070047
:10361000C0F1070ABAF1040F02D94FF0040A01E021
:10362000C0F1070AD14600F1040ABAF1070F02D22D
:103630004FF0000A01E0A0F1030AD4464FF0010A5E
:103640000AFA09FAAAF1010A0AEA020A0AFA0CFAC3
:103650004FF0010B0BFA0CFBABF1010B0BEA030B68
:103660004AEA0B042146404605F0A6FFBDE8F09F5C
:1036700000BF00F00702064B19684FF6FF03194020
:10368000044B0B4343EA0221014B196000BF704712
:103690000CED00E00000FA05704702461068416238
:1036A00000207047F0B5034615461868446A21B9F2
:1036B00044EA05401E68B06219E01868806A04EBAD
:1036C0001044002208E0186800F5827050F82200CB
:1036D00004EB1044501CC2B2481E9042F3D844EA96
:1036E0000547186800F582704E1E40F826700020CD
:1036F000F0BD10B50446D4F8E00404F0B0FA10BDF3
:1037000070B504460D4605EBC50304F1140101EB49
:103710008301CA682946D4F8E00404F09BF970BD1F
:1037200070B504460D4605EBC50304F5157101EBB4
:103730008301CA682946D4F8E00404F00FFA70BD8A
:1037400010B50446D4F8E00404F08CFA10BD2DE95D
:10375000F04104460D4605F08000802808D105F0B0
:103760000F0000EBC00104F1140000EB810607E03C
:1037700005F00F0000EBC00104F5157000EB8106A9
:103780003146206805F0B8FC07463846BDE8F081B0
:1037900070B504460E4606F0800080280AD106F077
:1037A0000F0000EBC00104F1140000EB81050120C3
:1037B000687009E006F00F0000EBC00104F5157019
:1037C00000EB81050020687006F00F00287000BF34
:1037D00094F89404012801D1022070BD012084F8DE
:1037E000940400BF2946206805F014F800BF0020AB
:1037F00084F8940400BF00BFEFE770B504460E469E
:1038000006F00F002179884201D9012070BD06F031
:10381000800080280AD106F00F0000EBC00104F1FF
:10382000140000EB81050120687009E006F00F002C
:1038300000EBC00104F5157000EB810500206870F5
:103840000020A87006F00F00287000BF94F89404C0
:10385000012801D10220D9E7012084F8940400BF97
:103860002946206805F0D4F900BF002084F89404AC
:1038700000BF00BFCAE7024601F00F0000EBC00323
:1038800002F5157000EB8300406970472DE9F047A1
:1038900005460E4690461F464FF0000906F0800090
:1038A00080280AD106F00F0000EBC00105F11400DA
:1038B00000EB81040120607009E006F00F0000EBCE
:1038C000C00105F5157000EB81040020607006F062
:1038D0000F002070C8F30A00A0602771607808B15B
:1038E00020786083022F01D10020607100BF95F81D
:1038F0009404012802D10220BDE8F087012085F858
:10390000940400BF2146286804F098FE00BF002000
:1039100085F8940400BF4846EEE72DE9F0410546DE
:103920000E461746984606F00F0000EBC00105F55D
:10393000157000EB8104E760C4F81080002060611E
:10394000607006F00F002070A879012800D1E761AF
:10395000AA792146286805F0EFF90020BDE8F0813A
:1039600070B504460D4605F00F002179884201D953
:10397000012070BD05F0800080280AD105F00F00FD
:1039800000EBC00104F1140000EB8106012070700F
:1039900007E005EBC50104F5157000EB810600207A
:1039A00070700120B07005F00F00307000BF94F807
:1039B0009404012801D10220DBE7012084F894045B
:1039C00000BF3146206805F06AF905F00F0028B9FC
:1039D000A17904F29C42206805F0E2F800BF0020C3
:1039E00084F8940400BF00BFC3E72DE9F041054609
:1039F0000E461746984606F00F0000EBC00105F191
:103A0000140000EB8104E760C4F8108000206061BE
:103A10000120607006F00F002070A879012800D105
:103A2000E761AA792146286805F086F90020BDE8FB
:103A3000F0812DE9FE4F0446D4F800B05E462068C0
:103A400005F03CFC002874D1206805F076FC08B92C
:103A5000BDE8FE8F40F608008059C0F30D20C4F881
:103A6000D404206805F069FC00F00200022805D1AA
:103A70002068406900F0020021684861206805F074
:103A80005CFC00F01000102845D12068806920F00F
:103A9000100021688861DBF8209009F00F0000EB2E
:103AA000C00104F5157000EB810AC9F343400228F8
:103AB0001AD147F6F07009EA000030B3C9F30A12D0
:103AC0005846DAF80C1005F03DFCC9F30A11DAF893
:103AD0000C000844CAF80C00C9F30A11DAF8140003
:103AE0000844CAF8140010E0C9F3434006280CD17A
:103AF000082204F29C41584605F024FCC9F30A113F
:103B0000DAF814000844CAF814002068806940F00C
:103B1000100021688861206805F00FFC00F4002087
:103B2000B0F5002F7BD10025206805F0D6FB029070
:103B300072E0E1E2029800F00100002868D0E9B2EA
:103B4000206805F0EDFB804608F0010048B1012136
:103B500006F5306000EB451081602946204602F0F2
:103B600059FB08F00800082809D1082106F5306043
:103B700000EB451081602946204602F019FB08F051
:103B80001000102805D1102106F5306000EB45101B
:103B9000816008F00200022824D1DBF8140000F054
:103BA0008000802807D140F60400805940F48061ED
:103BB00040F60400815105EBC50104F5157000EBDA
:103BC000810A9AF80300012806D100208AF8030030
:103BD000E9B2204600F09BFA022106F5306000EBC6
:103BE0004510816008F02000202805D1202106F52D
:103BF000306000EB4510816008F40050B0F5005FC4
:103C000006D14FF4005106F5306000EB451081609D
:103C10006D1C029840080290029800288AD1206802
:103C200005F08BFB00F48020B0F5802F7DD120685B
:103C300005F049FB029000259AE0029800F001008F
:103C4000002873D0E9B2206805F051FB804608F0E7
:103C50000100F0B305F00F0101208840019040F60B
:103C600034008159019821EA000040F6340188515E
:103C7000012106F5106000EB45108160A079012854
:103C800024D105EBC50104F1140000EB810005EB24
:103C9000C502C16804F1140000EB82008068014491
:103CA00005EBC50204F1140000EB8200C1606DB9A0
:103CB00005EBC50104F1140000EB8100006928B98F
:103CC00004F29C420121206804F06AFFE9B2204618
:103CD00000E001E0FFF714FD08F00800082805D116
:103CE000082106F5106000EB4510816008F0100017
:103CF000102805D1102106F5106000EB45108160F9
:103D000008F04000402805D1402106F5106000EB86
:103D10004510816008F0020002281DD1294658464E
:103D200005F08FFA05EBC50101E025E01CE004F188
:103D3000140000EB810A9AF80300012806D1002044
:103D40008AF80300E9B2204600F0D8F9022106F50E
:103D5000106000EB4510816008F08000802803D1DE
:103D60002946204602F0F8FA6D1C0298400802909D
:103D7000029800287FF461AF206805F0DEFA00F0B9
:103D80000040B0F1004F1CD140F60400805920F0F3
:103D9000010140F60400815194F8CC04012807D1B8
:103DA000002084F8CC0400212046FFF775FC02E0D7
:103DB000204600F0D1FA2068406900F000402168F8
:103DC0004861206805F0B9FA00F40060B0F5006FB2
:103DD0000ED140F60800805900F0010010B12046D5
:103DE00000F012FB2068406900F40060216848611F
:103DF000206805F0A2FA00F48050B0F5805F7ED113
:103E000040F60400805920F0010140F60400815181
:103E10001021206805F015FA002732E04FF67F31B7
:103E200006F5106000EB4710816006F5106000EBAE
:103E30004710006820F4001106F5106000EB4710F1
:103E400001604FF67F3106F5306000EB471081606E
:103E500006F5306000EB4710006820F4001106F50D
:103E6000306000EB4710016006F5306000EB471052
:103E7000006840F0006106F5306000EB471001601B
:103E80007F1C2079B842C9D840F61C00805940F008
:103E9000011140F61C008151E07B70B1D6F8840816
:103EA00040F00B01C6F8841840F64400805940F0F9
:103EB0000B0140F6440081510FE040F61400805998
:103EC00042F22B01084340F614018851081F805923
:103ED00040F00B014FF401608151D6F8000820F446
:103EE000FE60C6F80008A17904F29C42206804F044
:103EF00057FE2068406900F48050216800E000E02F
:103F00004861206805F019FA00F40050B0F5005F30
:103F100017D1206804F0FAFB206805F0BCF9E071C5
:103F200000F04EFB0090E2792068009905F08CFAD1
:103F3000204600F0F9F92068406900F4005021683B
:103F40004861206805F0F9F900F00800082808D158
:103F5000204600F008FA2068406900F00800216857
:103F60004861206805F0E9F900F08000802818D148
:103F7000DBF8180020F08000CBF8180001250DE0D8
:103F800005EBC50104F5157000EB8100C078012830
:103F900003D1E9B22046FFF7DAFB6D1C2079A84275
:103FA000EED8206805F0C9F900F48010B0F5801F44
:103FB0002DD1012522E006F5106000EB4510D0F868
:103FC000009005EBC50104F1140000EB81000079BD
:103FD000012812D109F00040B0F1004F0DD10121AC
:103FE00005EBC50204F1140000EB8200C170E8B2D9
:103FF00040F080012046FFF7AAFB6D1C2079A84203
:10400000D9D82068406900F4801021684861206890
:1040100005F093F900F40010B0F5001F44D101251C
:1040200038E006F5306000EB4510D0F8009005EB65
:10403000C50104F5157000EB81000079012828D135
:1040400009F00040B0F1004F23D109F4803094F81A
:10405000D41401F0010188421BD1012105EBC502F6
:1040600004F5157000EB8200C170DBF8180040F019
:104070008000CBF81800DBF8140000F0800040B995
:1040800040F60400805940F4007140F6040081516C
:1040900003E06D1C2079A842C3D800BF20684069A6
:1040A00000F4001021684861206805F046F900F02E
:1040B0008040B0F1804F08D12046FFF71AFB2068FE
:1040C000406900F0804021684861206805F035F9BA
:1040D00000F0040004280FD12068D0F8049009F003
:1040E0000400042802D12046FFF72AFB206840681C
:1040F00040EA09002168486000BFA9E470B50446A1
:104100000D462946D4F8E00403F018FE70BD70B5E2
:1041100004460D462946D4F8E00403F033FE70BD92
:10412000F8B504460CB90120F8BD266894F895044A
:1041300028B9002084F89404204600F0A1F8032058
:1041400084F89504B6F1A04F01D10021A171206837
:1041500004F01EFD207C8DF8000094E80F0004F0B0
:10416000E9FA20B1022084F895040120DCE700215F
:10417000206805F017F920B1022084F89504012089
:10418000D2E7002531E0012105EBC50204F114005E
:1041900000EB8200417005EBC50104F1140000F84A
:1041A000215005EBC50100EB81004583002105EBA3
:1041B000C50204F1140000EB8200017105EBC50299
:1041C00004F1140000EB8200816005EBC50204F1EC
:1041D000140000EB8200C16005EBC50204F114007D
:1041E00000EB82000161681CC5B22079A842CADCDC
:1041F00000252AE0002105EBC50204F5157000EB4F
:104200008200417005EBC50104F5157000F82150DE
:10421000002105EBC50200EB8200017105EBC50230
:1042200004F5157000EB8200816005EBC50204F512
:10423000157000EB8200C16005EBC50204F5157036
:1042400000EB82000161681CC5B22079A842D1DC74
:10425000207C8DF8000094E80F0004F0A5FB20B14D
:10426000022084F8950401205EE70020607401209C
:1042700084F89504206804F085FB002054E70000D2
:1042800010B586B00446142101A8FCF7D1F92068C6
:10429000B0F1A04F42D100BF00200090204800683C
:1042A00040F001001E4908600846006800F0010067
:1042B000009000BF00BF4FF4C05001900220029058
:1042C00000200390032004900A20059001A91548BE
:1042D000FEF7FCFF00BF1248001D006840F08000A0
:1042E0000F49091D086000BF002000900C481430E1
:1042F000006840F480400A491431086008460068AC
:1043000000F48040009000BF00BF00BF00220521E4
:104310004320FFF76FF94320FFF758F906B010BDAF
:10432000303802400000024070B504460125E079B3
:1043300008B9002506E0E079022801D1012501E055
:10434000FEF749F82946D4F8E00403F0C4FDD4F898
:10435000E00403F06BFD70BD10B50446D4F8E00432
:1043600003F09AFD10BD10B50446D4F8E00403F044
:104370009EFD10BD70B504460D4600BF94F8940430
:10438000012801D1022070BD012084F8940400BFEF
:1043900065742946206805F039F800BF002084F8CC
:1043A000940400BF00BFEEE710B5044604F29C4140
:1043B000D4F8E00403F0A6FD10BD70B504462568EE
:1043C00000BF94F89404012801D1022070BD01209F
:1043D00084F8940400BFE86800F0400030B1607BCE
:1043E000012803D1A86B40F48030A863206804F052
:1043F000F9FE206804F0B4FA00BF002084F89404A9
:1044000000BF00BFE2E7000010B50446D4F8E004A6
:1044100003F0D5FD2068D0F8000E40F001002168BF
:10442000C1F8000EE07A28B10348006840F00600A9
:104430000149086010BD000010ED00E070B50446B1
:104440000D460CB9012070BD5848006800F0070007
:10445000A84209D255490D700846006800F00700CF
:10446000A84201D00120EEE7207800F002000228E7
:104470001DD1207800F00400042805D14C480068C4
:1044800040F4E0504A490860207800F0080008280D
:1044900005D14748006840F46040454908604448F9
:1044A000006820F0F000A1680843414908602078C6
:1044B00000F00100A8B36068012807D13C48083823
:1044C0000068C0F34040B8B90120BCE7606802282A
:1044D00002D06068032807D1354808380068C0F367
:1044E000406048B90120AEE7314808380068C0F3A1
:1044F000400008B90120A6E72D48006820F003001D
:10450000616808432A490860FEF7E0FF064609E0B3
:10451000FEF7DCFF801B41F28831884202D903207C
:1045200091E707E02248006800F00C006168B0EBFA
:10453000810FEDD11D48006800F00700A84209D99D
:104540001A490D700846006800F00700A84201D023
:10455000012078E7207800F00400042807D11448EF
:10456000006820F4E050E1680843114908602078B1
:1045700000F00800082808D10D48006820F46040C9
:10458000216940EAC1000A49086000F03FF8084983
:104590000968C1F30311074A515CC8400649086025
:1045A00006480068FEF7C2FF00204CE7003C0240CE
:1045B0000838024064B600083800002030000020AF
:1045C00001480068704700003800002000B5FFF780
:1045D000F7FF04490968C1F38221034A515CC840CE
:1045E00000BD00000838024074B6000800B5FFF7AF
:1045F000E7FF04490968C1F34231034A515CC840EE
:1046000000BD00000838024074B600082DE9F047EC
:10461000002400250026A1462548006800F00C0073
:1046200020B1042805D008283AD105E0DFF88490AD
:1046300039E0DFF8849036E01D48001F006800F084
:104640003F041B48001F006800F4800078B11A483E
:104650001749091F0968C1F38811A0FB01700146C1
:10466000224600233846FBF7D5FE05460EE01148EA
:104670000F49091F0968C1F38811A0FB01700146A9
:10468000224600233846FBF7C5FE05460848001FB2
:104690000068C0F30140401C4600B5FBF6F902E09B
:1046A000DFF8109000BF00BF4846BDE8F08700006B
:1046B000083802400024F400001BB700F8B5044697
:1046C0000CB90120F8BD207800F00100002874D05A
:1046D000F948006800F00C0004280DD0F648006886
:1046E00000F00C00082813D1F348001F006800F404
:1046F0008000B0F5800F0BD1EF4808380068C0F398
:104700004040002859D06068002856D10120D9E7E0
:1047100000BF6068B0F5803F08D1E74808380068FE
:1047200040F48030E449083908601EE06068B0F564
:10473000A02F0DD1E0480838006840F48020DE4901
:10474000083908600846006840F4803008600CE0D2
:10475000D9480838006820F48030D7490839086003
:104760000846006820F48020086000BF606890B1AF
:10477000FEF7ACFE054606E0FEF7A8FE401B6428E7
:1047800001D903209EE7CC4808380068C0F34040B8
:104790000028F1D011E0FEF799FE054606E0FEF78D
:1047A00095FE401B642801D903208BE7C2480838D6
:1047B0000068C0F340400028F1D1207800F00200EA
:1047C00002285FD1BC48006800F00C0058B1BA481C
:1047D000006800F00C0008281CD1B748001F0068D2
:1047E00000F48000B0B9B44808380068C0F3400055
:1047F00020B1E068012801D0012063E7AE48083805
:10480000006820F0F800216940EAC100AA4908398F
:10481000086037E0E06800B30120A8490860FEF7AF
:1048200055FE054606E0FEF751FE401B022801D961
:10483000032047E7A04808380068C0F3400000287C
:10484000F1D09D480838006820F0F800216940EA5E
:10485000C10099490839086014E0002097490860B0
:10486000FEF734FE054606E0FEF730FE401B022848
:1048700001D9032026E7904808380068C0F34000BB
:104880000028F1D1207800F0080008282CD16069B8
:10489000A8B101208A490860FEF718FE054606E027
:1048A000FEF714FE401B022801D903200AE78248C4
:1048B0006C300068C0F340000028F1D014E0002004
:1048C0007F490860FEF702FE054606E0FEF7FEFDA2
:1048D000401B022801D90320F4E677486C300068B9
:1048E000C0F340000028F1D1207800F00400042833
:1048F00070D1002770483830006800F0805090B9BF
:1049000000BF002000906C483830006840F08050B4
:104910006949383108600846006800F0805000900E
:1049200000BF00BF01276748006800F48070B0B97D
:104930006448006840F4807062490860FEF7C6FD74
:10494000054606E0FEF7C2FD401B022801D9032000
:10495000B8E65C48006800F480700028F2D000BF20
:10496000A068012808D154486830006840F0010070
:104970005149683108601DE0A06805280DD14E48F6
:104980006830006840F004004B4968310860084610
:10499000006840F0010008600CE04748683000689B
:1049A00020F001004449683108600846006820F0A2
:1049B0000400086000BFA068A8B1FEF787FD0546A7
:1049C00009E0FEF783FD401B41F28831884202D99D
:1049D000032077E626E0384868300068C0F34000DE
:1049E0000028EED013E0FEF771FD054608E0FEF763
:1049F0006DFD401B41F28831884201D9032061E6F8
:104A00002D4868300068C0F340000028EFD1012F26
:104A100007D129483830006820F0805026493831C5
:104A2000086000BFA069002845D02348006800F056
:104A30000C0008285DD0A069022845D100201F493C
:104A40000866FEF743FD054606E0FEF73FFD401B06
:104A5000022801D9032035E6174808380068C0F35A
:104A600040600028F1D1D4E907010843616A40EAB7
:104A700081110122A06AC2EB500041EA00412C20C2
:104A8000005D41EA00600C49091F086001200B49E4
:104A90000866FEF71BFD054606E0FEF717FD401B06
:104AA000022801D903200DE6034808380068C0F346
:104AB00040600028F1D049E0083802400000474239
:104AC000800E474200700040002021490866FEF732
:104AD000FDFC054606E0FEF7F9FC401B022801D963
:104AE0000320EFE51B480068C0F340600028F2D1C6
:104AF0002CE0A069012800D1E4E51648001D0668F5
:104B0000A069012820D006F48001E06981421BD110
:104B100006F03F01206A814216D147F6C07030404E
:104B2000616AB0EB811F0FD106F440310122A06A07
:104B3000C2EB5000B1EB004F06D106F070612C20A3
:104B4000005DB1EB006F01D00120BBE50020B9E5AD
:104B5000000047420038024010B504460CB901205D
:104B600010BD607920B900202071204600F00EF8B9
:104B7000022060712068006840F00400216808602D
:104B8000012060710020A06000BFE9E708B50A4A73
:104B9000016891420FD100BF0021009107490968C7
:104BA00041F04001054A11601146096801F04001D9
:104BB000009100BF00BF08BD000806503438024015
:104BC00070B504462546681EB0F1807F01D30120F0
:104BD0000FE0681E4FF0E02148610F214FF0FF30D9
:104BE00004F0EAFC00204FF0E02188610720086112
:104BF000002070BD10B50346002200BF93F83C00B2
:104C0000012801D1022010BD012083F83C0000BF23
:104C100022F0FF00CC6840EA040222F440708C6865
:104C200040EA040222F480604C6840EA040222F464
:104C300000600C6840EA040222F480500C6940EAEB
:104C4000040222F400504C6940EA040222F480403D
:104C5000CC6940EA04021868426400BF002083F86F
:104C60003C0000BF00BFCEE730B502460B4600BF98
:104C700092F83C00012801D1022030BD012082F8C9
:104C80003C0000BF022082F83D00106844681068B4
:104C9000816824F070041868044310684460184D5B
:104CA0001068A8421BD01068B0F1804F17D0154D86
:104CB0001068A84213D0144D1068A8420FD0134DAD
:104CC0001068A8420BD0124D1068A84207D0114DB1
:104CD0001068A84203D0104D1068A84205D121F0F9
:104CE00080015868014310688160012082F83D000E
:104CF00000BF002082F83C0000BF00BFBDE70000FD
:104D0000000001400004004000080040000C00408A
:104D100000040140004001400018004010B5044666
:104D20000CB9012010BD94F83D0028B9002084F88A
:104D30003C00204600F026F8022084F83D00211DAA
:104D4000206801F0E3FB012084F8460000BF84F8EE
:104D50003E0001213F2001554020015541200155D1
:104D600000BF00BF012084F84200432001554420C9
:104D700001554520015500BF012084F83D00002069
:104D8000D0E7000008B50A4A016891420FD100BF80
:104D9000002100910749096841F00101054A1160AD
:104DA0001146096801F00101009100BF00BF08BD74
:104DB0000000014044380240014691F83D000128BE
:104DC00001D001207047022081F83D001A4B08688D
:104DD00098421BD00868B0F1804F17D0174B086875
:104DE000984213D0164B086898420FD0154B0868AC
:104DF00098420BD0144B0868984207D0134B0868B0
:104E0000984203D0124B086898420CD10868806819
:104E100000F00702062A0CD00868006840F0010084
:104E20000B68186005E00868006840F001000B6836
:104E300018600020C6E700000000014000040040A8
:104E400000080040000C0040000401400040014008
:104E5000001800402DE9F04104460D46002700BF30
:104E600094F83C00012802D10220BDE8F081012025
:104E700084F83C0000BF022084F83D00206886686A
:104E800026F0770626F47F4620688660286850283A
:104E900033D00CDC202850D004DC00284BD0102864
:104EA00051D149E0302849D040284CD139E0602820
:104EB0002DD0702807D0B0F5805F03D0B0F5005F2B
:104EC00041D10DE041E0D5E902136A68206801F0A4
:104ED000A2FB2068866846F077062068866034E08A
:104EE000D5E902136A68206801F095FB20688068A4
:104EF00040F480402168886027E0EA68696820689B
:104F000001F07AFC5021206801F090FB1DE0EA6876
:104F10006968206801F083FC6021206801F086FB4D
:104F200013E0EA686968206801F066FC40212068A7
:104F300001F07CFB09E000BF00BF00BF29682068CA
:104F400001F074FB01E0012700BF00BF012084F8DD
:104F50003D0000BF002084F83C0000BF384684E7D5
:104F600010B586B00446142101A8FBF761FB114976
:104F7000206888421CD100BF002000900E480068C5
:104F800040F010000C4908600846006800F010006E
:104F9000009000BF00BF4815019002200290002041
:104FA000039004900120059001A90448FEF78EF9B2
:104FB00006B010BD00000140303802400010024031
:104FC0002DE9F04104460D461646002700BF94F82F
:104FD0003C00012802D10220BDE8F081012084F8C4
:104FE0003C0000BF36B1042E1BD0082E31D00C2E51
:104FF0005ED145E02946206801F022FB20688069E7
:1050000040F00800216888612068806920F0040071
:10501000216888612068806929690843216888615E
:1050200048E02946206801F043FB2068806940F48D
:105030000060216888612068806920F480602168B0
:10504000886120688069296940EA012021688861B7
:1050500030E02946206801F069FB2068C06940F013
:1050600008002168C8612068C06920F00400216838
:10507000C8612068C069296908432168C86119E0CE
:105080002946206801F08EFB2068C06940F400606A
:105090002168C8612068C06920F480602168C86107
:1050A0002068C069296940EA01202168C86101E0DF
:1050B000012700BF00BF00BF002084F83C0000BFF4
:1050C000384689E710B504460CB9012010BD94F8A4
:1050D0003D0028B9002084F83C00204600F025F867
:1050E000022084F83D00211D206801F00FFA012004
:1050F00084F8460000BF84F83E0001213F2001559E
:10510000402001554120015500BF00BF012084F817
:10511000420043200155442001554520015500BF60
:10512000012084F83D000020D0E7704770B50446A8
:105130000D4615B994F83E000BE0042D02D13F2036
:10514000005D06E0082D02D14020005D01E0412015
:10515000005D012801D0012070BD1DB9022084F836
:105160003E000EE0042D03D102213F20015508E04E
:10517000082D03D102214020015502E002214120E7
:10518000015501222946206801F034FA234920689C
:10519000884203D022492068884201D1012000E0E2
:1051A000002028B12068406C40F400402168486429
:1051B0001A49206888421BD02068B0F1804F17D070
:1051C00018492068884213D01749206888420FD0B8
:1051D0001649206888420BD011492068884207D0C0
:1051E00013492068884203D01249206888420CD1B4
:1051F0002068806800F00706062E0CD02068006842
:1052000040F001002168086005E02068006840F077
:1052100001002168086000209EE7000000000140B6
:10522000000401400004004000080040000C004061
:105230000040014000180040704770472DE9F84FCA
:105240000446206805682068C668206847694FF0F2
:105250000009CA4605F00F09B9F1000F0AD105F09F
:10526000200038B106F0200020B1204601F044FBB8
:10527000BDE8F88FB9F1000F7CD007F0010018B934
:1052800006F49070002875D005F0010030B106F4E6
:10529000807018B1606C40F00100606405F004009B
:1052A00030B107F0010018B1606C40F0020060649A
:1052B00005F0020030B107F0010018B1606C40F059
:1052C0000400606405F0080048B106F0200010B941
:1052D00007F0010018B1606C40F008006064606C79
:1052E000002846D005F0200028B106F0200010B1BB
:1052F000204601F001FB20684069C0F3801A606C11
:1053000000F0080010B9BAF1000F2DD0204601F0CE
:10531000ADFA2068406900F04000402820D100BF6D
:1053200000BF2168143151E8001F21F040002168BE
:10533000143141E80002002AF3D100BFE06B50B104
:105340007748E16B0865E06BFDF702FE88B1E06B22
:10535000016D88470DE02046FFF76FFF09E009E087
:105360002046FFF76AFF04E02046FFF766FF0020B3
:1053700060647DE7206B012878D105F010000028DB
:1053800074D006F010000028FAD000BF0020009072
:1053900020680068009020684068009000BF00BF4F
:1053A0002068406900F04000402860D1E06B006850
:1053B00040681FFA80F8B8F1000F56D0A08D404524
:1053C00053DDA4F82E80E06BC069B0F5807F43D038
:1053D00000BF00BF21680C3151E8001F21F480702C
:1053E00021680C3141E80002002AF3D100BF00BF60
:1053F00000BF2168143151E8001F21F0010021682D
:10540000143141E80002002AF3D100BF00BF00BF01
:105410002168143151E8001F21F040002168143147
:1054200041E80002002AF3D100BF202084F84200A6
:105430000020206300BF00BF21680C3151E8001F2D
:1054400021F0100021680C3141E80002002AF3D15C
:1054500000BFE06BFDF726FD02206063A08DE28DAA
:10546000801A81B22046FFF7E7FE01E742E0A08DF7
:10547000E18D401A1FFA80F8E08DD0B3B8F1000F2B
:1054800037D000BF00BF21680C3151E8001F21F464
:10549000907021680C3141E80002002AF3D100BF6E
:1054A00000BF00BF2168143151E8001F21F0010046
:1054B0002168143141E80002002AF3D100BF202006
:1054C00084F842000020206300BF00BF21680C3137
:1054D00051E8001F21F0100021680C3141E8000262
:1054E000002AF3D100BF0220606341462046FFF747
:1054F000A3FEBDE605F0800030B106F0800018B1D3
:10550000204601F08DFBB3E605F0400030B106F017
:10551000400018B1204601F0DFF9A9E600BFA7E678
:105520005968000810B504460CB9012010BDA069E7
:1055300000B100E000BF94F8410028B9002084F8D1
:105540004000204600F02AF8242084F8410020681A
:10555000C06820F400502168C860204601F04AFA73
:105560002068006920F49040216808612068406943
:1055700020F02A00216848612068C06840F400508B
:105580002168C86000206064202084F8410084F80D
:1055900042000020606300BFC8E7000010B586B07D
:1055A0000446142101A8FBF743F8FE49206888420D
:1055B0007ED100BF00200090FB48006840F48010BE
:1055C000F94908600846006800F48010009000BFA8
:1055D00000BF00BF00200090F3481038006840F082
:1055E0000400F149103908600846006800F0040022
:1055F000009000BF00BF00BF002000900846006878
:1056000040F0080008600846006800F008000090BC
:1056100000BF00BF88140190022002900020039078
:10562000032004900820059001A9E048FDF74EFEF4
:105630000420019002200290002003900320049097
:105640000820059001A9DA48FDF740FED948DA495B
:105650000860C00548600021D7488160C1604FF4F0
:1056600080610161002141618161C161016241622A
:10567000FDF7A2FD08B1FCF7AEFE00BFCE48E06327
:10568000846300BFCB48A830CC4908604FF000606D
:1056900048604021C94881600021C1604FF48061A9
:1056A0000161002141618161C1610162416200E0EB
:1056B00012E0FDF781FD08B1FCF78DFE00BFBF4889
:1056C000A063846300BF002205213520FDF792FF0F
:1056D0003520FDF77BFFA4E1B949206888427CD1E1
:1056E00000BF00200090B048001D006840F010008E
:1056F000AD49091D08600846006800F010000090E0
:1057000000BF00BF00BF00200090A748103800680D
:1057100040F00200A449103908600846006800F013
:105720000200009000BF00BF00BF002000900846AC
:10573000006840F0010008600846006800F00100C1
:10574000009000BF00BF8020019002200290002046
:105750000390032004900720059001A99948FDF7C4
:10576000B5FD4FF4007001900220029000200390DC
:10577000032004900720059001A99348FDF7A6FD9A
:105780009248934908604FF00060486000219048BB
:105790008160C1604FF480610161002141618161DC
:1057A000C1614FF44031016200214162FDF704FD07
:1057B00008B1FCF710FE00BF8548E063846300BFBA
:1057C00082487830834908604FF00060486040218B
:1057D000804881600021C16000E01EE04FF48061DC
:1057E0000161002141618161C1614FF44031016279
:1057F00000214162FDF7E0FC08B1FCF7ECFD00BFC1
:105800007448A063846300BF002205212520FDF7B2
:10581000F1FE2520FDF7DAFE03E16F49206888429A
:1058200057D100BF002000905F48006840F48020FE
:105830005D4908600846006800F48020009000BFC1
:1058400000BF00BF0020009057481038006840F0AB
:1058500004005549103908600846006800F004004B
:10586000009000BF00BF4FF4406001900220029002
:1058700001200390032004900720059001A94B48C4
:10588000FDF724FD4B481830544908604FF0006084
:105890004860002151488160C1604FF4806101611E
:1058A000002141618161C16101624162FDF784FCB7
:1058B00008B1FCF790FD00BF4848E063846300BF77
:1058C000002205212720FDF795FE2720FDF77EFE0B
:1058D000A7E04349206888429ED100BF0020009085
:1058E0003148001D006840F020002F49091D086064
:1058F0000846006800F02000009000BF00BF00BF15
:105900000020009028481038006840F040002649E8
:10591000103908600846006800F04000009000BFA1
:1059200000BF4FF4844001900220029000200390B9
:10593000032004900820059001A92A48FDF7C6FC21
:105940002248183828490860800548600021264808
:105950008160C1604FF4806101610021416181611A
:10596000C1614FF48031016200214162FDF724FCE6
:1059700008B1FCF730FD00BF1B48E063846300BF43
:1059800012486030194908604FF02060486040219B
:10599000164881600021C1604FF4806101610021DF
:1059A000416125E0005000404038024000080240BC
:1059B000000C0240106002402008002080080020F7
:1059C0000010014000040240000002404064024018
:1059D000E00800204009002000480040A009002005
:1059E0000014014000180240000A0020600A002054
:1059F0008161C1614FF40031016200214162FDF714
:105A0000DBFB08B1FCF7E7FC00BF0748A063846339
:105A100000BF002205214720FDF7ECFD4720FDF7E0
:105A2000D5FD06B010BD0000600A00202DE9F84F3A
:105A300004460E46174699464FF0000A94F8420075
:105A4000202852D106B117B90120BDE8F88F0020F7
:105A50006064222084F8420000202063FDF736FDB8
:105A60008246A785E785A068B0F5805F04D12069EC
:105A700010B90025B04602E035464FF000082CE092
:105A80005346002220212046CDF8009001F0F8F87E
:105A900020B1202084F842000320D6E745B92068D1
:105AA0004068C0F30800A8F8000008F1020811E0FF
:105AB000A068B0F5805F03D0A06828B9206918B944
:105AC00020684068287004E02068406800F07F008B
:105AD00028706D1CE08D401EE085E08D0028CFD140
